:020000040800F2
:10000000C8060020AD0B0008FD020008FF02000832
:1000100003030008070300080B03000800000000AA
:100020000000000000000000000000000F030008B6
:100030001103000800000000130300081503000866
:10004000C70B0008C70B0008C70B0008C70B000848
:10005000C70B0008C70B0008C70B0008C70B000838
:10006000C70B0008C70B0008C70B0008C70B000828
:10007000C70B0008C70B0008C70B0008C70B000818
:10008000C70B0008C70B0008C70B0008C70B000808
:10009000C70B0008C70B0008C70B0008C70B0008F8
:1000A000C70B0008C70B0008C70B0008C70B0008E8
:1000B000C70B0008C70B0008C70B0008C70B0008D8
:1000C000C70B0008C70B0008C70B0008C70B0008C8
:1000D000C70B00089F0A0008C70B0008C70B0008E1
:1000E000C70B0008C70B0008C70B0008C70B0008A8
:1000F000C70B0008C70B0008C70B0008C70B000898
:10010000C70B0008C70B0008C70B0008C70B000887
:10011000C70B0008C70B0008C70B0008C70B000877
:10012000C70B0008C70B0008C70B0008C70B000867
:1001300000F002F800F03AF80AA090E8000C8244BF
:100140008344AAF10107DA4501D100F02FF8AFF29C
:10015000090EBAE80F0013F0010F18BFFB1A43F0A5
:1001600001031847CC200000EC200000103A24BF07
:1001700078C878C1FAD8520724BF30C830C144BF0C
:1001800004680C607047000000230024002500264E
:10019000103A28BF78C1FBD8520728BF30C148BFEA
:1001A0000B6070471FB51FBD10B510BD02F00DF8F4
:1001B0001146FFF7F7FF00F043F802F02BF803B405
:1001C000FFF7F2FF03BC00F087FB000010B5082228
:1001D00045494FF4907000F0E6FA0822424940F297
:1001E000211000F0E0FA10BD10B508223F4940F29E
:1001F000211000F0D8FA642000F041FB10BD10B5CA
:1002000008223A494FF4907000F0CDFA642000F0D3
:1002100036FB10BD10B50822354940F2211000F020
:10022000C2FA642000F02BFB10BD10B50822304943
:100230004FF4907000F0B7FA642000F020FB10BD7E
:1002400000F0D9F800F038FA00F0DCFA4FF4A060C2
:1002500001F050FA4FF4E13000F04CFB00F04CF9A3
:1002600000F074F93EE023480078022832D1224899
:100270000078012806D002280DD0032814D00428C5
:1002800024D11AE00021084600F079F9FFF7B7FF02
:10029000FFF7C0FF1DE00121084600F070F9FFF7ED
:1002A000C4FFFFF7A1FF14E00121002000F067F96F
:1002B000FFF7BBFFFFF7AEFF0BE00021012000F0CE
:1002C0005EF9FFF79CFFFFF78FFF00BF00F095F985
:1002D00000BF00BF07480078032803D100F08DF964
:1002E000FFF774FFBFE70000040000200C000020AF
:1002F000140000204400002045000020704700BF8B
:10030000FEE700BFFEE700BFFEE700BFFEE7704765
:1003100070477047704700000CB5002001900090B6
:100320006C48006840F480306A49086000BF694842
:10033000006800F4003000900198401C0190009883
:1003400018B90198B0F5A06FF1D16248006800F4C7
:10035000003010B10120009001E0002000900098D2
:10036000012843D15C48006840F010005A490860F9
:100370000846006820F0030008600846006840F066
:100380000200086053484068524948600846406887
:1003900048600846406840F480604860084640680D
:1003A00020F47C1048600846406840F4E81048603B
:1003B0000846006840F08070086000BF454800684B
:1003C00000F000700028F9D04248406820F0030097
:1003D000404948600846406840F00200486000BF5D
:1003E0003C48406800F00C000828F9D10CBD10B55D
:1003F000FFF792FF10BD10B53648006840F00100CD
:10040000344908600846406834490840314948602A
:1004100008460068324908402E49086008460068CE
:1004200020F4802008600846406820F4FE00486000
:100430004FF41F008860FFF7DAFF4FF00060294992
:10044000086010BD10B5002100200022214B5B6820
:1004500003F00C0121B1042906D0082928D107E0B6
:10046000214B224C236027E01F4B204C236023E0CC
:10047000184B5B6803F47010164B5B6803F4803212
:10048000022303EB904022B9194B4343174C2360DE
:100490000DE0104B5B6803F4003323B1144B43436E
:1004A000124C236003E0104B4343104C236003E0E5
:1004B0000D4B0E4C236000BF00BF064B5B68C3F3BF
:1004C00003130C4CE15C094B1B68CB40074C2360C9
:1004D00010BD000000100240002002400000FFF8A4
:1004E000FFFFF6FE08ED00E000127A002C0000206D
:1004F00000093D003000002008B50121402000F037
:1005000091FE2020ADF8000010208DF8030003209C
:100510008DF8020069460C4800F0C8FB20210A480B
:1005200000F071FC08BD10B52021074800F06BFCFD
:10053000C82000F0A4F92021034800F066FCC82080
:1005400000F09DF910BD00000018014008B5012120
:10055000802000F067FE40F21B60ADF80000102024
:100560008DF8030003208DF802006946504800F022
:100570009DFB40F21B614E4800F045FC08BD70B584
:1005800005460C4601214A4800F03FFC4FF400713B
:10059000474800F038FC0221454800F036FC4FF493
:1005A0008061434800F02FFC15B1012D0AD104E011
:1005B00008213F4800F027FC09E008213C4800F0F2
:1005C00024FC04E001213A4800F01DFC00BF00BFFC
:1005D00014B1012C0AD104E01021354800F015FCBB
:1005E00009E01021324800F00EFC04E002213048FE
:1005F00000F009FC00BF00BF70BD10B501212C4800
:1006000000F001FC02212A4800F0FDFB10BD70B58E
:1006100005460C460121264800F0F7FB4FF4007117
:10062000234800F0F0FB0221214800F0EEFB4FF4DC
:1006300080611F4800F0E7FB15B1012D16D10AE0DB
:1006400008211B4800F0DFFB4FF4FA7000F017F9A7
:10065000FFF7D3FF0FE00821154800F0D6FB4FF459
:10066000FA7000F00CF9FFF7C8FF04E00121104810
:1006700000F0C9FB00BF00BF14B1012C0ED106E091
:1006800010210B4800F0C1FBFFF7B7FF0BE0102172
:10069000074800F0B8FBFFF7B0FF04E00221044870
:1006A00000F0B1FB00BF00BF00200249087070BD20
:1006B000001C01404500002000B589B00121042044
:1006C00000F0B0FD0121480600F0B9FD4FF40060D4
:1006D000ADF8200048208DF8230008A9474800F015
:1006E000E5FA4FF48050ADF8200003208DF8220089
:1006F00018208DF8230008A9404800F0D7FA404898
:1007000001F066F805A801F087F900208DF81A00BD
:100710008DF81B008DF81C008DF81D008DF81E0053
:1007200001208DF81F0000208DF816008DF81700AD
:1007300005208DF8180007208DF819000320ADF86A
:10074000140005A92E4801F05CF800208DF80E0079
:100750008DF80F0001208DF810000020ADF8040086
:10076000ADF80600ADF80800ADF80A00ADF80C00D1
:1007700001208DF8110001A801F0CDF814208DF8AA
:10078000000000208DF801008DF8020001208DF896
:100790000300684600F0B3FF01220221184801F06F
:1007A000B9FB09B000BD2DE9F04186B00746884687
:1007B00014460025082C03DD002006B0BDE8F081BA
:1007C0000197002002908DF80C008DF80D008DF837
:1007D0000E40002505E018F805100DF10F004155F9
:1007E0006D1CA542F7DB01A9054801F083F9064617
:1007F000042E01D00120E0E70020DEE700080140E0
:100800000064004010B56FF0040000F0C2FF2E48F5
:1008100000682E49B0FBF1F02D49087008460078B9
:1008200000EB4001C1EBC0104FF6FF7101EAC000C0
:100830002849088010BD0146254A12784A434FF0E6
:10084000E0235A6100229A611A46126942F00102BD
:100850001A6100BF4FF0E022106900F001021AB1E6
:1008600000F48032002AF5D04FF0E022126922F025
:1008700001024FF0E0231A6100229A61704701469D
:10088000144A12884A434FF0E0235A6100229A61C9
:100890001A46126942F001021A6100BF4FF0E022CD
:1008A000106900F001021AB100F48032002AF5D07C
:1008B0004FF0E022126922F001024FF0E0231A61AA
:1008C00000229A61704700002C00002000127A007C
:1008D000400000204200002000BF704700BFA94A2E
:1008E000128802F04002002AF9D0C2B2A54B1B1DAB
:1008F0001A80704710B586B004460121880300F0C5
:1009000091FC0121042000F08DFC18208DF81700C7
:100910004FF40070ADF8140003208DF8160005A9FF
:10092000994800F0C3F948208DF817004FF4806013
:10093000ADF8140003208DF8160005A9924800F0C8
:10094000B5F901940020ADF810000C20ADF80E00B0
:100950000020ADF80C00ADF80A00ADF8080001A9C0
:10096000884800F006FD012240F22551854800F03C
:1009700098FD0121834800F088FD25208DF80000B6
:1009800000208DF801008DF8020001208DF8030091
:10099000684600F0B4FE06B010BD10B5044621460E
:1009A0007A4800F0DFFD00BF8021784800F048FE63
:1009B0000028F9D010BD10B504462146714800F05A
:1009C000D1FD00BF80216F4800F03AFE0028F9D029
:1009D00010BD10B5044621466D4800F0C3FD00BFB0
:1009E00080216B4800F02CFE0028F9D010BD70B5B6
:1009F00005460E46002404E0285DFFF7CEFF601C8C
:100A000084B2B442F8DB70BD70B50446002504E042
:100A1000605DFFF7C2FF681CC5B2605D0028F7D1BA
:100A200070BD10B50246012000E050430B1EA1F13D
:100A30000101FAD110BD2DE9F04106460C46002512
:100A400012E0601B411E0A20FFF7EBFFB6FBF0F03F
:100A50000A21B0FBF1F201FB120000F13007384629
:100A6000FFF79BFF681CC5B2A542EADBBDE8F08139
:100A700048480078012804D1002046490870012028
:100A800070470020FCE744480078704743484078AE
:100A9000434908704148807842490870704710B552
:100AA00040F22551374800F0E1FD012844D1354896
:100AB00000F05CFD3849087001203649087040F2AA
:100AC0002551304800F0FCFD33480078AA280DD1AC
:100AD00000203549087030480178334802780078A2
:100AE000401C314B18702D48815425E02E48007869
:100AF00010B3294801782C4802780078401C2A4B12
:100B00001870264881542448007855280DD118467D
:100B10000078042805D1FFF7B9FF002022490870AA
:100B20000AE000202049087006E01F4800780428E9
:100B300002DB00201C49087010BD70B504460D464C
:100B40002946204600F00EFD00BF8021204600F01F
:100B500077FD0028F9D070BD70B506460C4600251B
:100B600000BF615D3046FFF7E8FF681C85B2605D3D
:100B70000028F6D100BF4021304600F061FD00287A
:100B8000F9D070BD00380140000801400048004025
:100B9000004400404C0000204B0000204600002094
:100BA00044000020450000204A00002009488047FA
:100BB00009480047FEE7FEE7FEE7FEE7FEE7FEE73F
:100BC000FEE7FEE7FEE7FEE704480549054A064B57
:100BD00070470000F703000831010008C80000203A
:100BE000C8060020C8020020C802002010B5044634
:100BF000CC48844208D10121042000F02DFB0021C3
:100C0000042000F029FB46E0C748844208D10121B6
:100C1000082000F021FB0021082000F01DFB3AE035
:100C2000C248844208D10121102000F015FB0021A8
:100C3000102000F011FB2EE0BD48844208D10121B4
:100C4000202000F009FB0021202000F005FB22E01D
:100C5000B848844208D10121402000F0FDFA00216B
:100C6000402000F0F9FA16E0B348844208D101218F
:100C7000802000F0F1FA0021802000F0EDFA0AE077
:100C8000AE48844207D10121801500F0E5FA002129
:100C9000A01500F0E1FA10BD10B50121084600F0E2
:100CA000DBFA0021012000F0D7FA10BD2DE9F04158
:100CB000024600250026002000230024002791F88A
:100CC00003C00CF00F0591F803C00CF0100CBCF140
:100CD000000F03D091F802C04CEA050591F800C05E
:100CE000BCF1000F31D0146800202BE04FF0010C54
:100CF0000CFA00F3B1F800C00CEA03069E4220D1C2
:100D000083004FF00F0C0CFA03F7BC4305FA03FC09
:100D10004CEA040491F803C0BCF1280F06D14FF04F
:100D2000010C0CFA00FCC2F814C00AE091F803C0F0
:100D3000BCF1480F05D14FF0010C0CFA00FCC2F8D1
:100D400010C0401C0828D1D31460B1F800C0BCF119
:100D5000FF0F34DD546800202EE000F1080C4FF046
:100D6000010808FA0CF3B1F800C00CEA03069E4231
:100D700021D183004FF00F0C0CFA03F7BC4305FAA6
:100D800003FC4CEA040491F803C0BCF1280F05D120
:100D900000F1080C08FA0CF8C2F8148091F803C0AE
:100DA000BCF1480F07D100F1080C4FF0010808FA18
:100DB0000CF8C2F81080401C0828CED35460BDE85F
:100DC000F0814FF6FF710180022181700421C17012
:100DD00070470246002093680B400BB1012000E0F1
:100DE000002070470146886880B2704702460020A4
:100DF000D3680B400BB1012000E000207047014692
:100E0000C86880B2704701617047416170470AB19C
:100E1000016100E041617047C16070474FF480326A
:100E20000A438261816182618269826970470246F8
:100E30000020434B18684FF68073184040EA0210B8
:100E400008433F4B186070473E49C8617047F0B592
:100E50000A46002300240021002500F00046B6F1D8
:100E6000004F02D1364EF16901E0354E7168C0F392
:100E7000034583B200F44016B6F5401F08D121F0B7
:100E800070612F4E766826F070662D4F7E6012E0FE
:100E900000F48016B6F5801F06D1032606FA05F485
:100EA000A14341F0706106E0460D360103FA06F6F3
:100EB000B14341F0706122B1460D360103FA06F6E6
:100EC000314300F00046B6F1004F02D11C4EF161F3
:100ED00001E01B4E7160F0BD30B500228B071C0F86
:100EE0000F2303FA04F2164B08338C1053F8243006
:100EF0009343134C08348D1044F8253023468C104E
:100F000053F824308C07240F00FA04F423430C4CCC
:100F100008348D1044F8253030BD0A49DC310860B2
:100F20007047000000080140000C01400010014023
:100F30000014014000180140001C01400020014045
:100F40000000014000002042DF48006840F001003E
:100F5000DD49086008464068DC490840DA494860D5
:100F600008460068DA490840D74908600846006822
:100F700020F4802008600846406820F4FE004860A5
:100F80004FF41F0088607047CF49096821F4803111
:100F9000CD4A11601146096821F480211160B0F535
:100FA000803F03D0B0F5802F0ED106E0C649096816
:100FB00041F48031C44A116007E0C349096841F433
:100FC000A021C14A116000E000BF00BF704710B50A
:100FD00001460022002300204A11012A02D1BA4C06
:100FE000236806E0022A02D1B74C236A01E0B64C1E
:100FF000636A01F01F02012494401C400CB10120DF
:1010000000E0002010BD38B500200090002400252D
:1010100000BF3120FFF7DBFF05460098401C009021
:101020000098B0F5A06F01D0002DF2D03120FFF76D
:10103000CEFF08B1012400E00024204638BD01465F
:101040000020A14A106820F0F80040EAC1001060BA
:101050007047A04908607047024600209A4B5868C4
:1010600020F47C1042EA01031843974B5860704704
:1010700098490866704701460020934A506820F05E
:1010800003000843506070478F48406800F00C0030
:101090007047014600208C4A506820F0F000084359
:1010A0005060704701460020874A506820F4E06095
:1010B00008435060704701460020834A506820F47E
:1010C000605040EAC1005060704729B17E4A527AB0
:1010D00002437D4B5A7204E07B4A527A82437A4B38
:1010E0005A7270477B49D83108607047014600202A
:1010F000754A506820F44040084350607047002112
:10110000714A20321170704A82F82010012802D0F2
:1011100004280AD104E001216B4A2032117005E055
:101120000521694A2032117000E000BF00BF7047FE
:101130006949086070476449096A0143624A11625B
:101140007047654944390860704730B50021002276
:10115000002400235C4D6D6805F00C0121B10429C9
:1011600005D0082923D105E05C4D056022E05B4DE8
:1011700005601FE0544D6D6805F47012524D6D68A6
:1011800005F48034022505EB92421CB9544D5543B9
:1011900005600BE04C4D6D6805F400351DB1504DF8
:1011A0005543056002E04D4D5543056002E04B4D4F
:1011B000056000BF00BF444D6D6805F0F0010909EE
:1011C000484D6B5C0568DD4045603F4D6D6805F43A
:1011D000E061090A434D6B5C4568DD4085603A4D2E
:1011E0006D6805F46051C90A3E4D6B5C4568DD4091
:1011F000C560354D6D6805F44041890B3A4D6B5C17
:10120000C568B5FBF3F5056130BD29B12E4A5269B9
:1012100002432D4B5A6104E02B4A526982432A4B08
:101220005A61704729B1284A92690243264B9A6154
:1012300004E0254A92698243234B9A61704729B1A1
:10124000214AD2690243204BDA6104E01E4AD26986
:1012500082431D4BDA61704729B11B4AD2680243B1
:10126000194BDA6004E0184AD2688243164BDA6000
:10127000704729B1144A12690243134B1A6104E002
:10128000114A12698243104B1A6170471249403962
:10129000086070470F49C86470470B49C8717047B0
:1012A0000948406A40F0807007494862704701462B
:1012B0000020054A92680A400AB1012000E000209F
:1012C0007047014988727047001002400000FFF823
:1012D000FFFFF6FE000042428004424200127A0004
:1012E00000093D00540000206400002010B50446B1
:1012F000FB48844209D101218803FFF7ADFF00219B
:101300004FF48040FFF7A8FF32E0F648844209D14D
:1013100001214804FFF7ADFF00214FF40030FFF733
:10132000A8FF25E0F048844209D101218804FFF795
:10133000A0FF00214FF48020FFF79BFF18E0EB484F
:10134000844209D10121C804FFF793FF00214FF423
:101350000020FFF78EFF0BE0E548844208D1012111
:101360000805FFF786FF00214FF48010FFF781FF8B
:1013700010BD2DE9F04786B005460E460024A24672
:1013800000BFA1460027B08900B100BF2F462C8ABC
:101390004CF6FF700440F08804432C82AC894EF672
:1013A000F3100440B088318908437189084304432D
:1013B000AC81AC8A4FF6FF400440B0890443AC8254
:1013C00001A8FFF7C2FEC648874202D1DDF810A08F
:1013D00001E0DDF80CA0A88900F4004040B10AEB60
:1013E000CA0000EB0A1031684900B0FBF1F807E0D1
:1013F0000AEBCA0000EB0A1031688900B0FBF1F873
:101400006420B8FBF0F004012009642101FB10897D
:10141000A88900F4004040B1322000EBC900B0FBC5
:10142000F1F000F00700044308E0322000EB09105F
:101430006421B0FBF1F000F00F0004432C8106B0F2
:10144000BDE8F0874FF41651016000218180C18012
:1014500001810C21418100218181704710B5024634
:101460000020108A4FF2FF0318400B884C8823435A
:101470008C882343CC8823431843108210BD00215D
:10148000018041808180C180704721B1828942F40E
:101490000052828104E082894DF6FF731A408281F6
:1014A0007047F0B50346002400260025002040F6D2
:1014B0006A17B94200D100BF1846C1F3421401F0C7
:1014C0001F06012707FA06F5012C01D10C3004E0B4
:1014D000022C01D1103000E014301AB107682F43FC
:1014E000076002E00768AF430760F0BD1AB1838A66
:1014F0000B43838202E0838A8B4383827047028A94
:101500004FF6F0731A400282028A0A430282704741
:1015100082894FF2FF731A40828182890A43828155
:10152000704721B1828942F00202828104E08289FF
:101530004FF6FD731A4082817047028A4FF6DF73BF
:101540001A400282028A0A430282704721B1028A4B
:1015500042F48042028204E0028A4BF6FF731A4092
:1015600002827047C1F30802828070470146888872
:10157000C0F308007047818941F001018181704703
:10158000028BD2B20283028B42EA012202837047AD
:10159000028B02F47F420283028B0A43028370476C
:1015A00021B1828A42F02002828204E0828A4FF6D0
:1015B000DF731A408282704721B1828A42F01002A2
:1015C000828204E0828A4FF6EF731A40828270476B
:1015D00021B1828A42F00802828204E0828A4FF6B8
:1015E000F7731A408282704721B1828942F4004227
:1015F000828103E08289C2F30E028281704721B1A9
:10160000828A42F40062828204E0828A4FF2FF738F
:101610001A4082827047828A4FF6FB731A40828298
:10162000828A0A438282704721B1828A42F0020292
:10163000828204E0828A4FF6FD731A4082827047EC
:1016400002460020B1F5007F00D100BF13880B4097
:101650000BB1012000E00020704701F40072B2F5E8
:10166000007F00D100BFCA430280704770B50246B8
:10167000002400230025002040F66A16B14200D164
:1016800000BFC1F3421501F01F03012606FA03F360
:10169000012D02D19689334006E0022D02D1168A2F
:1016A000334001E0968A33400C12012606FA04F416
:1016B0001688344013B10CB1012000E0002070BD49
:1016C00010B50022002340F66A14A14200D100BFE9
:1016D0000A1201249440A3B2DC43048010BD000030
:1016E000003801400044004000480040004C0040E9
:1016F0000050004031490143314A1160704770B5D4
:10170000002100230F22C47804B32D4C246804F474
:10171000E064C4F5E064210AC1F10403CA404478DE
:1017200004FA03F18478144021430901254C06781A
:10173000A155047804F01F050124AC4005786D1113
:10174000AD0005F1E025C5F8004109E0047804F09A
:101750001F050124AC401C4D0678761145F8264043
:1017600070BD1A4A0A400243154B1B1F1A6070478E
:1017700039B1134A121D12680243114B1B1D1A6026
:1017800006E00F4A121D126882430D4B1B1D1A60A2
:101790007047042808D14FF0E021096941F00401A5
:1017A0004FF0E022116107E04FF0E021096921F0DC
:1017B00004014FF0E0221161704700000000FA05BB
:1017C0000CED00E000E400E080E100E080FFFF1F9E
:1017D00010B50446FE48844209D101214806FFF7AE
:1017E00048FD00214FF00070FFF743FD08E00121A4
:1017F0008806FFF73EFD00214FF08060FFF739FDBE
:1018000010BD30B5024600200023146824F0020405
:101810001460146844F00104146000E05B1C546818
:1018200004F001041CB94FF6FF74A342F6D15468CA
:1018300004F001040CB900206CE08C79012C04D177
:10184000146844F08004146003E0146824F08004F9
:101850001460CC79012C04D1146844F04004146065
:1018600003E0146824F0400414600C7A012C04D1C5
:10187000146844F02004146003E0146824F0200489
:1018800014604C7A012C04D1146844F010041460E4
:1018900003E0146824F0100414608C7A012C04D145
:1018A000146844F00804146003E0146824F0080489
:1018B0001460CC7A012C04D1146844F00404146040
:1018C00003E0146824F0040414608C78A407CD7835
:1018D00044EA05640D7944EA05444D7944EA055427
:1018E0000D886D1E2C43D461146824F0010414602B
:1018F000002300E05B1C546804F001041CB14FF6A7
:10190000FF74A342F6D1546804F001040CB1002026
:1019100000E0012030BD10B50021837A012202FAD7
:1019200003F1AC4A126842F00102AA4B1A60A94ABC
:101930001C3212688A43A74B1C331A60027BCAB957
:10194000A44A0C3212688A43A24B0C331A604288B4
:10195000C38842EA03439F4A4032847A42F83430D3
:101960000288838842EA03439A4A4032847A02EB2F
:10197000C4025360027B012A19D1964A0C321268C4
:101980000A43944B0C331A604288038842EA0343AB
:10199000904A4032847A42F83430C288838842EADE
:1019A00003438C4A4032847A02EBC4025360C27A09
:1019B0003AB9884A121D12688A43864B1B1D1A6069
:1019C00006E0844A121D12680A43824B1B1D1A60EE
:1019D000028932B97F4A143212688A437D4B14332C
:1019E0001A600289012A06D17A4A143212680A431F
:1019F000784B14331A60427B012A06D1754A1C3297
:101A000012680A43734B1C331A60724A126822F040
:101A10000102704B1A6010BD00218171C171017209
:101A200041728172C1728170C17003210171022102
:101A300041710121018070476649096841F0010147
:101A4000644A11601146096843F60E729143614A77
:101A500011601146096841EA0021116011460968C8
:101A600021F001011160704721B1026842F4803217
:101A7000026003E0026822F4803202607047E1B144
:101A8000026842F0800202604FF4C272125842F4BF
:101A900080734FF4C27213504FF4CA72125842F45A
:101AA00080734FF4CA7213504FF4D272125842F43A
:101AB00080734FF4D27213501BE0026822F0800250
:101AC00002604FF4C272125822F480734FF4C27253
:101AD00013504FF4CA72125822F480734FF4CA7232
:101AE00013504FF4D272125822F480734FF4D27212
:101AF0001350704710B502460020936803F08063CE
:101B0000B3F1806F00D110E0936803F00063B3F18C
:101B1000006F01D1012008E0936803F08053B3F116
:101B2000805F01D1022000E00420042879D002F572
:101B3000C07303EB00131B6803F0010402F5C073CC
:101B400003EB00131C600B7A7BB94B7A0C8843EAD9
:101B5000445302F5C07404EB00142468234302F5D7
:101B6000C07404EB0014236010E00B7A4C6843EA65
:101B7000C4034C7A234302F5C07404EB00142468B8
:101B8000234302F5C07404EB001423608B7A03F046
:101B90000F038B7202F5C07303EB00135B6823F035
:101BA0000F0402F5C07303EB00135C6002F5C07311
:101BB00003EB00135B688C7A234302F5C07404EBDB
:101BC000001463608B7B1C064B7B44EA034403E0F8
:101BD00000640040006600400B7B44EA0323CC7A9B
:101BE000234302F5C07404EB0014A3608B7C1C0635
:101BF0004B7C44EA03440B7C44EA0323CC7B234321
:101C000002F5C07404EB0014E36002F5C07303EB4B
:101C100000131B6843F0010402F5C07303EB0013CB
:101C20001C6010BD10B50246002321B1012907D068
:101C300002290FD109E09068F94C00EA04030BE097
:101C40009068F84C00EA040306E09068F64C00EA5D
:101C5000040301E0002300BF00BFF44C181BA342A3
:101C600016D007DC83B16FF08060184470B1022891
:101C700018D111E0B0F5007F10D0ED4C204448B1F0
:101C8000B0F5003F0ED10BE002230DE000230BE086
:101C9000002309E0002307E0012305E0012303E01E
:101CA000012301E0002300BF00BFD8B210BD21B165
:101CB000012907D002290FD109E0826842F0800291
:101CC00082600AE0826842F40042826005E0826835
:101CD00042F40002826000E000BF00BF704710B510
:101CE00000F5D87303EB01131B6803F004031372B0
:101CF000137A53B900F5D87303EB01131B6840F254
:101D0000FF7404EA5353136009E000F5D87303EB42
:101D100001131B686FF0604404EAD303536000F5BD
:101D2000D87303EB01131B6803F00203537200F531
:101D3000D87303EB01135B6803F00F03937200F594
:101D4000D87303EB01135B681B0AD37400F5D873D7
:101D500003EB01139B68D37200F5D87303EB0113F7
:101D60009B681C0A147300F5D87303EB01139B687E
:101D70001C0C547300F5D87303EB01139B681B0E06
:101D8000937300F5D87303EB0113DB68D37300F58D
:101D9000D87303EB0113DB681C0A147400F5D873C5
:101DA00003EB0113DB681C0C547400F5D87303EBD0
:101DB0000113DB681B0E937421B9C36843F0200341
:101DC000C36003E0036943F02003036110BD21B940
:101DD000C26842F02002C26003E0026942F02002C1
:101DE000026170470246002019B9D36803F003006E
:101DF00006E0012903D1136903F0030000E000208D
:101E0000704710B502460B4600204FF6FF71BBB974
:101E1000146824F0020444F00104146000E0491E38
:101E2000546804F00304012C01D00029F7D1546850
:101E300004F00304012C01D0002032E0012030E046
:101E4000012B13D1146824F00304146000E0491E30
:101E5000546804F003040CB10029F8D1546804F06C
:101E600003040CB100201CE001201AE0022B17D162
:101E7000146824F0010444F00204146000E0491ED8
:101E8000546804F00304022C01D00029F7D15468EF
:101E900004F00304022C01D0002002E0012000E045
:101EA000002010BD014600200A6822F0010242F025
:101EB00002020A604A6802F00302022A00D10120ED
:101EC000704701464FF6FF7200200B6823F00203B3
:101ED0000B6000E0521E4B6803F00203022B01D19D
:101EE000002AF7D14B6803F00203022B00D0012037
:101EF0007047014600208A6902F070007047014671
:101F000000208A69100E7047014600208A69C2F3DA
:101F1000074070471AB143690B43436102E04369CC
:101F20008B434361704710B50246002001F47003F3
:101F300043B19369C1F3130423400BB101202DE099
:101F400000202BE001F0807343B15368C1F3130408
:101F500023400BB1012021E000201FE001F00063CD
:101F600043B19368C1F3130423400BB1012015E082
:101F7000002013E001F0007343B1D368C1F31304F0
:101F800023400BB1012009E0002007E01369C1F3F1
:101F9000130423400BB1012000E0002010BD0022FB
:101FA000244B994202D10023836111E0C1F3130253
:101FB00001F000730BB1C2600AE001F080630BB165
:101FC000026105E001F000630BB1826000E0426055
:101FD00070470246002002EA01030BB1012000E035
:101FE0000020704770B504460D4600266069284001
:101FF000002872D0B5F5807F69D01DDC082D42D055
:1020000006DC012D2DD0022D31D0042D7FD134E0FE
:10201000102D3ED0202D42D0402D78D145E000003B
:102020000300000400030008000003100001000882
:102030000001FFF77000F030B5F5004F61D009DC0A
:10204000B5F5007F4AD0B5F5806F4DD0B5F5006F7E
:102050005DD150E0B5F5803F2DD0B5F5003F56D1AC
:102060002FE0A0685549FFF7B4FF064651E0E0684D
:102070000321FFF7AEFF06464BE0E0680821FFF7BB
:10208000A8FF064645E0E0681021FFF7A2FF0646DC
:102090003FE020690321FFF79CFF064639E02069F5
:1020A0000821FFF796FF064633E020691021FFF76D
:1020B00090FF06462DE060680821FFF78AFF06467C
:1020C00027E060681021FFF784FF064621E0A06941
:1020D0000121FFF77EFF06461BE01BE0A0690221FD
:1020E000FFF777FF064614E0A0690421FFF771FFB0
:1020F00006460EE00BE0A0697021FFF76AFF064676
:1021000007E060680421FFF764FF064601E000264F
:1021100000BF00E00026304670BDB1F5007F3AD028
:102120000FDC202928D006DC01291CD004291DD071
:10213000082940D11DE0402921D0B1F5807F3AD156
:1021400026E0B1F5004F31D006DCB1F5806F25D027
:10215000B1F5006F2FD124E0B1F5803F12D0B1F579
:10216000003F28D111E0154A826025E00822C260B4
:1021700022E01022C2601FE0082202611CE010224F
:10218000026119E00822426016E01022426013E06A
:102190000422426010E0042242600DE0042242600A
:1021A0000AE0002282610422426005E0002282618E
:1021B0000422426000E000BF00BF7047010101003F
:1021C00070477047704770477047754600F02CF8AD
:1021D000AE4605006946534620F00700854618B014
:1021E00020B5FEF7F1FCBDE820404FF000064FF0AF
:1021F00000074FF000084FF0000B21F00701AC463C
:10220000ACE8C009ACE8C009ACE8C009ACE8C0095A
:102210008D46704710B50446AFF300802046BDE8F8
:102220001040FDF7CCBF0000004870476800002058
:102230005022000800000020680000006C01000827
:10224000B82200086800002060060000880100082D
:1022500000000000AA03000055060708AA020200B9
:1022600055060708AA0201005506070800000000ED
:1022700000000000000000000000000000A24A046E
:102280000000000000000000010203040607080926
:10229000000000000000000000000000000000003E
:1022A000000000000000000001020304010203041A
:0822B0000607080902040608F4
:0400000508000131BD
:00000001FF
